{"abi":[{"type":"function","name":"currentRoot","inputs":[],"outputs":[{"name":"","type":"bytes32","internalType":"bytes32"}],"stateMutability":"view"},{"type":"function","name":"getBalance","inputs":[],"outputs":[{"name":"","type":"uint256","internalType":"uint256"}],"stateMutability":"view"},{"type":"function","name":"isProofUsed","inputs":[{"name":"proofId","type":"bytes32","internalType":"bytes32"}],"outputs":[{"name":"","type":"bool","internalType":"bool"}],"stateMutability":"view"},{"type":"function","name":"lock","inputs":[{"name":"to","type":"bytes32","internalType":"bytes32"}],"outputs":[],"stateMutability":"payable"},{"type":"function","name":"unlock","inputs":[{"name":"to","type":"address","internalType":"address payable"},{"name":"amount","type":"uint256","internalType":"uint256"},{"name":"proof","type":"bytes32[]","internalType":"bytes32[]"},{"name":"proofPath","type":"bool[]","internalType":"bool[]"},{"name":"from","type":"bytes32","internalType":"bytes32"}],"outputs":[],"stateMutability":"nonpayable"},{"type":"function","name":"updateRoot","inputs":[{"name":"newRoot","type":"bytes32","internalType":"bytes32"}],"outputs":[],"stateMutability":"nonpayable"},{"type":"function","name":"usedProofs","inputs":[{"name":"","type":"bytes32","internalType":"bytes32"}],"outputs":[{"name":"","type":"bool","internalType":"bool"}],"stateMutability":"view"},{"type":"event","name":"Locked","inputs":[{"name":"from","type":"address","indexed":true,"internalType":"address"},{"name":"to","type":"bytes32","indexed":true,"internalType":"bytes32"},{"name":"amount","type":"uint256","indexed":false,"internalType":"uint256"}],"anonymous":false},{"type":"event","name":"Unlocked","inputs":[{"name":"to","type":"address","indexed":true,"internalType":"address"},{"name":"from","type":"bytes32","indexed":true,"internalType":"bytes32"},{"name":"amount","type":"uint256","indexed":false,"internalType":"uint256"}],"anonymous":false}],"bytecode":{"object":"0x608060405234801561001057600080fd5b50610f91806100206000396000f3fe6080604052600436106100705760003560e01c8063557bbf7f1161004e578063557bbf7f146100e55780638b306d2714610122578063c30a0f251461014b578063fdab463d1461018857610070565b806301670ba91461007557806312065fe01461009157806321ff9970146100bc575b600080fd5b61008f600480360381019061008a91906106b8565b6101b3565b005b34801561009d57600080fd5b506100a6610248565b6040516100b391906106fe565b60405180910390f35b3480156100c857600080fd5b506100e360048036038101906100de91906106b8565b610250565b005b3480156100f157600080fd5b5061010c600480360381019061010791906106b8565b61025a565b6040516101199190610734565b60405180910390f35b34801561012e57600080fd5b5061014960048036038101906101449190610894565b610283565b005b34801561015757600080fd5b50610172600480360381019061016d91906106b8565b610529565b60405161017f9190610734565b60405180910390f35b34801561019457600080fd5b5061019d610549565b6040516101aa919061095f565b60405180910390f35b600034116101f6576040517f08c379a00000000000000000000000000000000000000000000000000000000081526004016101ed906109d7565b60405180910390fd5b803373ffffffffffffffffffffffffffffffffffffffff167fcaae0f5e72020d428da73a237d1f9bf162e158dda6d4908769b8b60c095b01f43460405161023d91906106fe565b60405180910390a350565b600047905090565b8060018190555050565b600080600083815260200190815260200160002060009054906101000a900460ff169050919050565b600073ffffffffffffffffffffffffffffffffffffffff168773ffffffffffffffffffffffffffffffffffffffff16036102f2576040517f08c379a00000000000000000000000000000000000000000000000000000000081526004016102e990610a43565b60405180910390fd5b60008611610335576040517f08c379a000000000000000000000000000000000000000000000000000000000815260040161032c906109d7565b60405180910390fd5b85471015610378576040517f08c379a000000000000000000000000000000000000000000000000000000000815260040161036f90610aaf565b60405180910390fd5b6000818888888888886040516020016103979796959493929190610cbd565b60405160208183030381529060405280519060200120905060008082815260200190815260200160002060009054906101000a900460ff161561040f576040517f08c379a000000000000000000000000000000000000000000000000000000000815260040161040690610d64565b60405180910390fd5b600160008083815260200190815260200160002060006101000a81548160ff02191690831515021790555061044a868686868660015461054f565b610489576040517f08c379a000000000000000000000000000000000000000000000000000000000815260040161048090610dd0565b60405180910390fd5b8773ffffffffffffffffffffffffffffffffffffffff166108fc889081150290604051600060405180830381858888f193505050501580156104cf573d6000803e3d6000fd5b50818873ffffffffffffffffffffffffffffffffffffffff167f11f87fd5adcd05786919b8b868f59a70d78ae4eb6f305c5927f9c5b1659841a48960405161051791906106fe565b60405180910390a35050505050505050565b60006020528060005260406000206000915054906101000a900460ff1681565b60015481565b6000848490508787905014610599576040517f08c379a000000000000000000000000000000000000000000000000000000000815260040161059090610e3c565b60405180910390fd5b600083905060005b888890508110156106675760008989838181106105c1576105c0610e5c565b5b9050602002013590508787838181106105dd576105dc610e5c565b5b90506020020160208101906105f29190610e8b565b1561062757808360405160200161060a929190610eb8565b604051602081830303815290604052805190602001209250610653565b828160405160200161063a929190610eb8565b6040516020818303038152906040528051906020012092505b50808061065f90610f13565b9150506105a1565b508281149150509695505050505050565b600080fd5b600080fd5b6000819050919050565b61069581610682565b81146106a057600080fd5b50565b6000813590506106b28161068c565b92915050565b6000602082840312156106ce576106cd610678565b5b60006106dc848285016106a3565b91505092915050565b6000819050919050565b6106f8816106e5565b82525050565b600060208201905061071360008301846106ef565b92915050565b60008115159050919050565b61072e81610719565b82525050565b60006020820190506107496000830184610725565b92915050565b600073ffffffffffffffffffffffffffffffffffffffff82169050919050565b600061077a8261074f565b9050919050565b61078a8161076f565b811461079557600080fd5b50565b6000813590506107a781610781565b92915050565b6107b6816106e5565b81146107c157600080fd5b50565b6000813590506107d3816107ad565b92915050565b600080fd5b600080fd5b600080fd5b60008083601f8401126107fe576107fd6107d9565b5b8235905067ffffffffffffffff81111561081b5761081a6107de565b5b602083019150836020820283011115610837576108366107e3565b5b9250929050565b60008083601f840112610854576108536107d9565b5b8235905067ffffffffffffffff811115610871576108706107de565b5b60208301915083602082028301111561088d5761088c6107e3565b5b9250929050565b600080600080600080600060a0888a0312156108b3576108b2610678565b5b60006108c18a828b01610798565b97505060206108d28a828b016107c4565b965050604088013567ffffffffffffffff8111156108f3576108f261067d565b5b6108ff8a828b016107e8565b9550955050606088013567ffffffffffffffff8111156109225761092161067d565b5b61092e8a828b0161083e565b935093505060806109418a828b016106a3565b91505092959891949750929550565b61095981610682565b82525050565b60006020820190506109746000830184610950565b92915050565b600082825260208201905092915050565b7f416d6f756e74206d7573742062652067726561746572207468616e2030000000600082015250565b60006109c1601d8361097a565b91506109cc8261098b565b602082019050919050565b600060208201905081810360008301526109f0816109b4565b9050919050565b7f496e76616c696420726563697069656e74206164647265737300000000000000600082015250565b6000610a2d60198361097a565b9150610a38826109f7565b602082019050919050565b60006020820190508181036000830152610a5c81610a20565b9050919050565b7f496e73756666696369656e742062616c616e6365000000000000000000000000600082015250565b6000610a9960148361097a565b9150610aa482610a63565b602082019050919050565b60006020820190508181036000830152610ac881610a8c565b9050919050565b6000819050919050565b610aea610ae582610682565b610acf565b82525050565b60008160601b9050919050565b6000610b0882610af0565b9050919050565b6000610b1a82610afd565b9050919050565b610b32610b2d8261076f565b610b0f565b82525050565b6000819050919050565b610b53610b4e826106e5565b610b38565b82525050565b600081905092915050565b600080fd5b82818337600083830152505050565b6000610b848385610b59565b93507f07ffffffffffffffffffffffffffffffffffffffffffffffffffffffffffffff831115610bb757610bb6610b64565b5b602083029250610bc8838584610b69565b82840190509392505050565b600081905092915050565b6000819050919050565b610bf281610719565b82525050565b6000610c048383610be9565b60208301905092915050565b610c1981610719565b8114610c2457600080fd5b50565b600081359050610c3681610c10565b92915050565b6000610c4b6020840184610c27565b905092915050565b6000602082019050919050565b6000610c6c8385610bd4565b9350610c7782610bdf565b8060005b85811015610cb057610c8d8284610c3c565b610c978882610bf8565b9750610ca283610c53565b925050600181019050610c7b565b5085925050509392505050565b6000610cc9828a610ad9565b602082019150610cd98289610b21565b601482019150610ce98288610b42565b602082019150610cfa828688610b78565b9150610d07828486610c60565b915081905098975050505050505050565b7f50726f6f6620616c726561647920757365640000000000000000000000000000600082015250565b6000610d4e60128361097a565b9150610d5982610d18565b602082019050919050565b60006020820190508181036000830152610d7d81610d41565b9050919050565b7f496e76616c69642070726f6f6600000000000000000000000000000000000000600082015250565b6000610dba600d8361097a565b9150610dc582610d84565b602082019050919050565b60006020820190508181036000830152610de981610dad565b9050919050565b7f50726f6f6620616e642070617468206c656e677468206d69736d617463680000600082015250565b6000610e26601e8361097a565b9150610e3182610df0565b602082019050919050565b60006020820190508181036000830152610e5581610e19565b9050919050565b7f4e487b7100000000000000000000000000000000000000000000000000000000600052603260045260246000fd5b600060208284031215610ea157610ea0610678565b5b6000610eaf84828501610c27565b91505092915050565b6000610ec48285610ad9565b602082019150610ed48284610ad9565b6020820191508190509392505050565b7f4e487b7100000000000000000000000000000000000000000000000000000000600052601160045260246000fd5b6000610f1e826106e5565b91507fffffffffffffffffffffffffffffffffffffffffffffffffffffffffffffffff8203610f5057610f4f610ee4565b5b60018201905091905056fea2646970667358221220a0bdfc1557c6c1e2eeea9a82ee57617f27176826081ddaea47b1716ad51ceafa64736f6c634300080f0033","linkReferences":{}},"methodIdentifiers":{"currentRoot()":"fdab463d","getBalance()":"12065fe0","isProofUsed(bytes32)":"557bbf7f","lock(bytes32)":"01670ba9","unlock(address,uint256,bytes32[],bool[],bytes32)":"8b306d27","updateRoot(bytes32)":"21ff9970","usedProofs(bytes32)":"c30a0f25"},"id":0}